{
  "_format": "hh-sol-artifact-1",
  "contractName": "MockNFT",
  "sourceName": "src/backend/contracts/MockNft.sol",
  "abi": [
    {
      "inputs": [],
      "stateMutability": "nonpayable",
      "type": "constructor"
    },
    {
      "anonymous": false,
      "inputs": [
        {
          "indexed": true,
          "internalType": "address",
          "name": "owner",
          "type": "address"
        },
        {
          "indexed": true,
          "internalType": "address",
          "name": "approved",
          "type": "address"
        },
        {
          "indexed": true,
          "internalType": "uint256",
          "name": "tokenId",
          "type": "uint256"
        }
      ],
      "name": "Approval",
      "type": "event"
    },
    {
      "anonymous": false,
      "inputs": [
        {
          "indexed": true,
          "internalType": "address",
          "name": "owner",
          "type": "address"
        },
        {
          "indexed": true,
          "internalType": "address",
          "name": "operator",
          "type": "address"
        },
        {
          "indexed": false,
          "internalType": "bool",
          "name": "approved",
          "type": "bool"
        }
      ],
      "name": "ApprovalForAll",
      "type": "event"
    },
    {
      "anonymous": false,
      "inputs": [
        {
          "indexed": true,
          "internalType": "address",
          "name": "from",
          "type": "address"
        },
        {
          "indexed": true,
          "internalType": "address",
          "name": "to",
          "type": "address"
        },
        {
          "indexed": true,
          "internalType": "uint256",
          "name": "tokenId",
          "type": "uint256"
        }
      ],
      "name": "Transfer",
      "type": "event"
    },
    {
      "inputs": [
        {
          "internalType": "address",
          "name": "to",
          "type": "address"
        },
        {
          "internalType": "uint256",
          "name": "tokenId",
          "type": "uint256"
        }
      ],
      "name": "approve",
      "outputs": [],
      "stateMutability": "nonpayable",
      "type": "function"
    },
    {
      "inputs": [
        {
          "internalType": "address",
          "name": "owner",
          "type": "address"
        }
      ],
      "name": "balanceOf",
      "outputs": [
        {
          "internalType": "uint256",
          "name": "",
          "type": "uint256"
        }
      ],
      "stateMutability": "view",
      "type": "function"
    },
    {
      "inputs": [
        {
          "internalType": "uint256",
          "name": "tokenId",
          "type": "uint256"
        }
      ],
      "name": "getApproved",
      "outputs": [
        {
          "internalType": "address",
          "name": "",
          "type": "address"
        }
      ],
      "stateMutability": "view",
      "type": "function"
    },
    {
      "inputs": [
        {
          "internalType": "address",
          "name": "owner",
          "type": "address"
        },
        {
          "internalType": "address",
          "name": "operator",
          "type": "address"
        }
      ],
      "name": "isApprovedForAll",
      "outputs": [
        {
          "internalType": "bool",
          "name": "",
          "type": "bool"
        }
      ],
      "stateMutability": "view",
      "type": "function"
    },
    {
      "inputs": [],
      "name": "mint",
      "outputs": [
        {
          "internalType": "uint256",
          "name": "",
          "type": "uint256"
        }
      ],
      "stateMutability": "nonpayable",
      "type": "function"
    },
    {
      "inputs": [],
      "name": "name",
      "outputs": [
        {
          "internalType": "string",
          "name": "",
          "type": "string"
        }
      ],
      "stateMutability": "view",
      "type": "function"
    },
    {
      "inputs": [
        {
          "internalType": "uint256",
          "name": "tokenId",
          "type": "uint256"
        }
      ],
      "name": "ownerOf",
      "outputs": [
        {
          "internalType": "address",
          "name": "",
          "type": "address"
        }
      ],
      "stateMutability": "view",
      "type": "function"
    },
    {
      "inputs": [],
      "name": "postCount",
      "outputs": [
        {
          "internalType": "uint256",
          "name": "",
          "type": "uint256"
        }
      ],
      "stateMutability": "view",
      "type": "function"
    },
    {
      "inputs": [
        {
          "internalType": "address",
          "name": "from",
          "type": "address"
        },
        {
          "internalType": "address",
          "name": "to",
          "type": "address"
        },
        {
          "internalType": "uint256",
          "name": "tokenId",
          "type": "uint256"
        }
      ],
      "name": "safeTransferFrom",
      "outputs": [],
      "stateMutability": "nonpayable",
      "type": "function"
    },
    {
      "inputs": [
        {
          "internalType": "address",
          "name": "from",
          "type": "address"
        },
        {
          "internalType": "address",
          "name": "to",
          "type": "address"
        },
        {
          "internalType": "uint256",
          "name": "tokenId",
          "type": "uint256"
        },
        {
          "internalType": "bytes",
          "name": "data",
          "type": "bytes"
        }
      ],
      "name": "safeTransferFrom",
      "outputs": [],
      "stateMutability": "nonpayable",
      "type": "function"
    },
    {
      "inputs": [
        {
          "internalType": "address",
          "name": "operator",
          "type": "address"
        },
        {
          "internalType": "bool",
          "name": "approved",
          "type": "bool"
        }
      ],
      "name": "setApprovalForAll",
      "outputs": [],
      "stateMutability": "nonpayable",
      "type": "function"
    },
    {
      "inputs": [
        {
          "internalType": "bytes4",
          "name": "interfaceId",
          "type": "bytes4"
        }
      ],
      "name": "supportsInterface",
      "outputs": [
        {
          "internalType": "bool",
          "name": "",
          "type": "bool"
        }
      ],
      "stateMutability": "view",
      "type": "function"
    },
    {
      "inputs": [],
      "name": "symbol",
      "outputs": [
        {
          "internalType": "string",
          "name": "",
          "type": "string"
        }
      ],
      "stateMutability": "view",
      "type": "function"
    },
    {
      "inputs": [],
      "name": "tokenCount",
      "outputs": [
        {
          "internalType": "uint256",
          "name": "",
          "type": "uint256"
        }
      ],
      "stateMutability": "view",
      "type": "function"
    },
    {
      "inputs": [
        {
          "internalType": "uint256",
          "name": "tokenId",
          "type": "uint256"
        }
      ],
      "name": "tokenURI",
      "outputs": [
        {
          "internalType": "string",
          "name": "",
          "type": "string"
        }
      ],
      "stateMutability": "view",
      "type": "function"
    },
    {
      "inputs": [
        {
          "internalType": "address",
          "name": "from",
          "type": "address"
        },
        {
          "internalType": "address",
          "name": "to",
          "type": "address"
        },
        {
          "internalType": "uint256",
          "name": "tokenId",
          "type": "uint256"
        }
      ],
      "name": "transferFrom",
      "outputs": [],
      "stateMutability": "nonpayable",
      "type": "function"
    }
  ],
  "bytecode": "0x60806040523480156200001157600080fd5b506040518060400160405280600781526020017f4d6f636b4e4654000000000000000000000000000000000000000000000000008152506040518060400160405280600381526020017f4e46540000000000000000000000000000000000000000000000000000000000815250816000908051906020019062000096929190620000b8565b508060019080519060200190620000af929190620000b8565b505050620001cd565b828054620000c69062000197565b90600052602060002090601f016020900481019282620000ea576000855562000136565b82601f106200010557805160ff191683800117855562000136565b8280016001018555821562000136579182015b828111156200013557825182559160200191906001019062000118565b5b50905062000145919062000149565b5090565b5b80821115620001645760008160009055506001016200014a565b5090565b7f4e487b7100000000000000000000000000000000000000000000000000000000600052602260045260246000fd5b60006002820490506001821680620001b057607f821691505b60208210811415620001c757620001c662000168565b5b50919050565b6128b280620001dd6000396000f3fe608060405234801561001057600080fd5b50600436106101005760003560e01c80636352211e11610097578063a22cb46511610066578063a22cb465146102af578063b88d4fde146102cb578063c87b56dd146102e7578063e985e9c51461031757610100565b80636352211e1461021357806370a082311461024357806395d89b41146102735780639f181b5e1461029157610100565b80631249c58b116100d35780631249c58b1461019f57806317906c2e146101bd57806323b872dd146101db57806342842e0e146101f757610100565b806301ffc9a71461010557806306fdde0314610135578063081812fc14610153578063095ea7b314610183575b600080fd5b61011f600480360381019061011a9190611aa2565b610347565b60405161012c9190611aea565b60405180910390f35b61013d610429565b60405161014a9190611b9e565b60405180910390f35b61016d60048036038101906101689190611bf6565b6104bb565b60405161017a9190611c64565b60405180910390f35b61019d60048036038101906101989190611cab565b610501565b005b6101a7610619565b6040516101b49190611cfa565b60405180910390f35b6101c5610647565b6040516101d29190611cfa565b60405180910390f35b6101f560048036038101906101f09190611d15565b61064d565b005b610211600480360381019061020c9190611d15565b6106ad565b005b61022d60048036038101906102289190611bf6565b6106cd565b60405161023a9190611c64565b60405180910390f35b61025d60048036038101906102589190611d68565b610754565b60405161026a9190611cfa565b60405180910390f35b61027b61080c565b6040516102889190611b9e565b60405180910390f35b61029961089e565b6040516102a69190611cfa565b60405180910390f35b6102c960048036038101906102c49190611dc1565b6108a4565b005b6102e560048036038101906102e09190611f36565b6108ba565b005b61030160048036038101906102fc9190611bf6565b61091c565b60405161030e9190611b9e565b60405180910390f35b610331600480360381019061032c9190611fb9565b610a2f565b60405161033e9190611aea565b60405180910390f35b60007f80ac58cd000000000000000000000000000000000000000000000000000000007bffffffffffffffffffffffffffffffffffffffffffffffffffffffff1916827bffffffffffffffffffffffffffffffffffffffffffffffffffffffff1916148061041257507f5b5e139f000000000000000000000000000000000000000000000000000000007bffffffffffffffffffffffffffffffffffffffffffffffffffffffff1916827bffffffffffffffffffffffffffffffffffffffffffffffffffffffff1916145b80610422575061042182610ac3565b5b9050919050565b60606000805461043890612028565b80601f016020809104026020016040519081016040528092919081815260200182805461046490612028565b80156104b15780601f10610486576101008083540402835291602001916104b1565b820191906000526020600020905b81548152906001019060200180831161049457829003601f168201915b5050505050905090565b60006104c682610b2d565b6004600083815260200190815260200160002060009054906101000a900473ffffffffffffffffffffffffffffffffffffffff169050919050565b600061050c826106cd565b90508073ffffffffffffffffffffffffffffffffffffffff168373ffffffffffffffffffffffffffffffffffffffff16141561057d576040517f08c379a0000000000000000000000000000000000000000000000000000000008152600401610574906120cc565b60405180910390fd5b8073ffffffffffffffffffffffffffffffffffffffff1661059c610b78565b73ffffffffffffffffffffffffffffffffffffffff1614806105cb57506105ca816105c5610b78565b610a2f565b5b61060a576040517f08c379a00000000000000000000000000000000000000000000000000000000081526004016106019061215e565b60405180910390fd5b6106148383610b80565b505050565b60006007600081548092919061062e906121ad565b919050555061063f33600754610c39565b600754905090565b60085481565b61065e610658610b78565b82610c57565b61069d576040517f08c379a000000000000000000000000000000000000000000000000000000000815260040161069490612268565b60405180910390fd5b6106a8838383610cec565b505050565b6106c8838383604051806020016040528060008152506108ba565b505050565b6000806106d983610fe6565b9050600073ffffffffffffffffffffffffffffffffffffffff168173ffffffffffffffffffffffffffffffffffffffff16141561074b576040517f08c379a0000000000000000000000000000000000000000000000000000000008152600401610742906122d4565b60405180910390fd5b80915050919050565b60008073ffffffffffffffffffffffffffffffffffffffff168273ffffffffffffffffffffffffffffffffffffffff1614156107c5576040517f08c379a00000000000000000000000000000000000000000000000000000000081526004016107bc90612366565b60405180910390fd5b600360008373ffffffffffffffffffffffffffffffffffffffff1673ffffffffffffffffffffffffffffffffffffffff168152602001908152602001600020549050919050565b60606001805461081b90612028565b80601f016020809104026020016040519081016040528092919081815260200182805461084790612028565b80156108945780601f1061086957610100808354040283529160200191610894565b820191906000526020600020905b81548152906001019060200180831161087757829003601f168201915b5050505050905090565b60075481565b6108b66108af610b78565b8383611023565b5050565b6108cb6108c5610b78565b83610c57565b61090a576040517f08c379a000000000000000000000000000000000000000000000000000000000815260040161090190612268565b60405180910390fd5b61091684848484611190565b50505050565b606061092782610b2d565b600060066000848152602001908152602001600020805461094790612028565b80601f016020809104026020016040519081016040528092919081815260200182805461097390612028565b80156109c05780601f10610995576101008083540402835291602001916109c0565b820191906000526020600020905b8154815290600101906020018083116109a357829003601f168201915b5050505050905060006109d16111ec565b90506000815114156109e7578192505050610a2a565b600082511115610a1c578082604051602001610a049291906123c2565b60405160208183030381529060405292505050610a2a565b610a2584611203565b925050505b919050565b6000600560008473ffffffffffffffffffffffffffffffffffffffff1673ffffffffffffffffffffffffffffffffffffffff16815260200190815260200160002060008373ffffffffffffffffffffffffffffffffffffffff1673ffffffffffffffffffffffffffffffffffffffff16815260200190815260200160002060009054906101000a900460ff16905092915050565b60007f01ffc9a7000000000000000000000000000000000000000000000000000000007bffffffffffffffffffffffffffffffffffffffffffffffffffffffff1916827bffffffffffffffffffffffffffffffffffffffffffffffffffffffff1916149050919050565b610b368161126b565b610b75576040517f08c379a0000000000000000000000000000000000000000000000000000000008152600401610b6c906122d4565b60405180910390fd5b50565b600033905090565b816004600083815260200190815260200160002060006101000a81548173ffffffffffffffffffffffffffffffffffffffff021916908373ffffffffffffffffffffffffffffffffffffffff160217905550808273ffffffffffffffffffffffffffffffffffffffff16610bf3836106cd565b73ffffffffffffffffffffffffffffffffffffffff167f8c5be1e5ebec7d5bd14f71427d1e84f3dd0314c0f7b2291e5b200ac8c7c3b92560405160405180910390a45050565b610c538282604051806020016040528060008152506112ac565b5050565b600080610c63836106cd565b90508073ffffffffffffffffffffffffffffffffffffffff168473ffffffffffffffffffffffffffffffffffffffff161480610ca55750610ca48185610a2f565b5b80610ce357508373ffffffffffffffffffffffffffffffffffffffff16610ccb846104bb565b73ffffffffffffffffffffffffffffffffffffffff16145b91505092915050565b8273ffffffffffffffffffffffffffffffffffffffff16610d0c826106cd565b73ffffffffffffffffffffffffffffffffffffffff1614610d62576040517f08c379a0000000000000000000000000000000000000000000000000000000008152600401610d5990612458565b60405180910390fd5b600073ffffffffffffffffffffffffffffffffffffffff168273ffffffffffffffffffffffffffffffffffffffff161415610dd2576040517f08c379a0000000000000000000000000000000000000000000000000000000008152600401610dc9906124ea565b60405180910390fd5b610ddf8383836001611307565b8273ffffffffffffffffffffffffffffffffffffffff16610dff826106cd565b73ffffffffffffffffffffffffffffffffffffffff1614610e55576040517f08c379a0000000000000000000000000000000000000000000000000000000008152600401610e4c90612458565b60405180910390fd5b6004600082815260200190815260200160002060006101000a81549073ffffffffffffffffffffffffffffffffffffffff02191690556001600360008573ffffffffffffffffffffffffffffffffffffffff1673ffffffffffffffffffffffffffffffffffffffff168152602001908152602001600020600082825403925050819055506001600360008473ffffffffffffffffffffffffffffffffffffffff1673ffffffffffffffffffffffffffffffffffffffff16815260200190815260200160002060008282540192505081905550816002600083815260200190815260200160002060006101000a81548173ffffffffffffffffffffffffffffffffffffffff021916908373ffffffffffffffffffffffffffffffffffffffff160217905550808273ffffffffffffffffffffffffffffffffffffffff168473ffffffffffffffffffffffffffffffffffffffff167fddf252ad1be2c89b69c2b068fc378daa952ba7f163c4a11628f55a4df523b3ef60405160405180910390a4610fe1838383600161142d565b505050565b60006002600083815260200190815260200160002060009054906101000a900473ffffffffffffffffffffffffffffffffffffffff169050919050565b8173ffffffffffffffffffffffffffffffffffffffff168373ffffffffffffffffffffffffffffffffffffffff161415611092576040517f08c379a000000000000000000000000000000000000000000000000000000000815260040161108990612556565b60405180910390fd5b80600560008573ffffffffffffffffffffffffffffffffffffffff1673ffffffffffffffffffffffffffffffffffffffff16815260200190815260200160002060008473ffffffffffffffffffffffffffffffffffffffff1673ffffffffffffffffffffffffffffffffffffffff16815260200190815260200160002060006101000a81548160ff0219169083151502179055508173ffffffffffffffffffffffffffffffffffffffff168373ffffffffffffffffffffffffffffffffffffffff167f17307eab39ab6107e8899845ad3d59bd9653f200f220920489ca2b5937696c31836040516111839190611aea565b60405180910390a3505050565b61119b848484610cec565b6111a784848484611433565b6111e6576040517f08c379a00000000000000000000000000000000000000000000000000000000081526004016111dd906125e8565b60405180910390fd5b50505050565b606060405180602001604052806000815250905090565b606061120e82610b2d565b60006112186111ec565b905060008151116112385760405180602001604052806000815250611263565b80611242846115ca565b6040516020016112539291906123c2565b6040516020818303038152906040525b915050919050565b60008073ffffffffffffffffffffffffffffffffffffffff1661128d83610fe6565b73ffffffffffffffffffffffffffffffffffffffff1614159050919050565b6112b683836116a2565b6112c36000848484611433565b611302576040517f08c379a00000000000000000000000000000000000000000000000000000000081526004016112f9906125e8565b60405180910390fd5b505050565b600181111561142757600073ffffffffffffffffffffffffffffffffffffffff168473ffffffffffffffffffffffffffffffffffffffff161461139b5780600360008673ffffffffffffffffffffffffffffffffffffffff1673ffffffffffffffffffffffffffffffffffffffff16815260200190815260200160002060008282546113939190612608565b925050819055505b600073ffffffffffffffffffffffffffffffffffffffff168373ffffffffffffffffffffffffffffffffffffffff16146114265780600360008573ffffffffffffffffffffffffffffffffffffffff1673ffffffffffffffffffffffffffffffffffffffff168152602001908152602001600020600082825461141e919061263c565b925050819055505b5b50505050565b50505050565b60006114548473ffffffffffffffffffffffffffffffffffffffff166118c0565b156115bd578373ffffffffffffffffffffffffffffffffffffffff1663150b7a0261147d610b78565b8786866040518563ffffffff1660e01b815260040161149f94939291906126e7565b602060405180830381600087803b1580156114b957600080fd5b505af19250505080156114ea57506040513d601f19601f820116820180604052508101906114e79190612748565b60015b61156d573d806000811461151a576040519150601f19603f3d011682016040523d82523d6000602084013e61151f565b606091505b50600081511415611565576040517f08c379a000000000000000000000000000000000000000000000000000000000815260040161155c906125e8565b60405180910390fd5b805181602001fd5b63150b7a0260e01b7bffffffffffffffffffffffffffffffffffffffffffffffffffffffff1916817bffffffffffffffffffffffffffffffffffffffffffffffffffffffff1916149150506115c2565b600190505b949350505050565b6060600060016115d9846118e3565b01905060008167ffffffffffffffff8111156115f8576115f7611e0b565b5b6040519080825280601f01601f19166020018201604052801561162a5781602001600182028036833780820191505090505b509050600082602001820190505b600115611697578080600190039150507f3031323334353637383961626364656600000000000000000000000000000000600a86061a8153600a858161168157611680612775565b5b049450600085141561169257611697565b611638565b819350505050919050565b600073ffffffffffffffffffffffffffffffffffffffff168273ffffffffffffffffffffffffffffffffffffffff161415611712576040517f08c379a0000000000000000000000000000000000000000000000000000000008152600401611709906127f0565b60405180910390fd5b61171b8161126b565b1561175b576040517f08c379a00000000000000000000000000000000000000000000000000000000081526004016117529061285c565b60405180910390fd5b611769600083836001611307565b6117728161126b565b156117b2576040517f08c379a00000000000000000000000000000000000000000000000000000000081526004016117a99061285c565b60405180910390fd5b6001600360008473ffffffffffffffffffffffffffffffffffffffff1673ffffffffffffffffffffffffffffffffffffffff16815260200190815260200160002060008282540192505081905550816002600083815260200190815260200160002060006101000a81548173ffffffffffffffffffffffffffffffffffffffff021916908373ffffffffffffffffffffffffffffffffffffffff160217905550808273ffffffffffffffffffffffffffffffffffffffff16600073ffffffffffffffffffffffffffffffffffffffff167fddf252ad1be2c89b69c2b068fc378daa952ba7f163c4a11628f55a4df523b3ef60405160405180910390a46118bc60008383600161142d565b5050565b6000808273ffffffffffffffffffffffffffffffffffffffff163b119050919050565b600080600090507a184f03e93ff9f4daa797ed6e38ed64bf6a1f0100000000000000008310611941577a184f03e93ff9f4daa797ed6e38ed64bf6a1f010000000000000000838161193757611936612775565b5b0492506040810190505b6d04ee2d6d415b85acef8100000000831061197e576d04ee2d6d415b85acef8100000000838161197457611973612775565b5b0492506020810190505b662386f26fc1000083106119ad57662386f26fc1000083816119a3576119a2612775565b5b0492506010810190505b6305f5e10083106119d6576305f5e10083816119cc576119cb612775565b5b0492506008810190505b61271083106119fb5761271083816119f1576119f0612775565b5b0492506004810190505b60648310611a1e5760648381611a1457611a13612775565b5b0492506002810190505b600a8310611a2d576001810190505b80915050919050565b6000604051905090565b600080fd5b600080fd5b60007fffffffff0000000000000000000000000000000000000000000000000000000082169050919050565b611a7f81611a4a565b8114611a8a57600080fd5b50565b600081359050611a9c81611a76565b92915050565b600060208284031215611ab857611ab7611a40565b5b6000611ac684828501611a8d565b91505092915050565b60008115159050919050565b611ae481611acf565b82525050565b6000602082019050611aff6000830184611adb565b92915050565b600081519050919050565b600082825260208201905092915050565b60005b83811015611b3f578082015181840152602081019050611b24565b83811115611b4e576000848401525b50505050565b6000601f19601f8301169050919050565b6000611b7082611b05565b611b7a8185611b10565b9350611b8a818560208601611b21565b611b9381611b54565b840191505092915050565b60006020820190508181036000830152611bb88184611b65565b905092915050565b6000819050919050565b611bd381611bc0565b8114611bde57600080fd5b50565b600081359050611bf081611bca565b92915050565b600060208284031215611c0c57611c0b611a40565b5b6000611c1a84828501611be1565b91505092915050565b600073ffffffffffffffffffffffffffffffffffffffff82169050919050565b6000611c4e82611c23565b9050919050565b611c5e81611c43565b82525050565b6000602082019050611c796000830184611c55565b92915050565b611c8881611c43565b8114611c9357600080fd5b50565b600081359050611ca581611c7f565b92915050565b60008060408385031215611cc257611cc1611a40565b5b6000611cd085828601611c96565b9250506020611ce185828601611be1565b9150509250929050565b611cf481611bc0565b82525050565b6000602082019050611d0f6000830184611ceb565b92915050565b600080600060608486031215611d2e57611d2d611a40565b5b6000611d3c86828701611c96565b9350506020611d4d86828701611c96565b9250506040611d5e86828701611be1565b9150509250925092565b600060208284031215611d7e57611d7d611a40565b5b6000611d8c84828501611c96565b91505092915050565b611d9e81611acf565b8114611da957600080fd5b50565b600081359050611dbb81611d95565b92915050565b60008060408385031215611dd857611dd7611a40565b5b6000611de685828601611c96565b9250506020611df785828601611dac565b9150509250929050565b600080fd5b600080fd5b7f4e487b7100000000000000000000000000000000000000000000000000000000600052604160045260246000fd5b611e4382611b54565b810181811067ffffffffffffffff82111715611e6257611e61611e0b565b5b80604052505050565b6000611e75611a36565b9050611e818282611e3a565b919050565b600067ffffffffffffffff821115611ea157611ea0611e0b565b5b611eaa82611b54565b9050602081019050919050565b82818337600083830152505050565b6000611ed9611ed484611e86565b611e6b565b905082815260208101848484011115611ef557611ef4611e06565b5b611f00848285611eb7565b509392505050565b600082601f830112611f1d57611f1c611e01565b5b8135611f2d848260208601611ec6565b91505092915050565b60008060008060808587031215611f5057611f4f611a40565b5b6000611f5e87828801611c96565b9450506020611f6f87828801611c96565b9350506040611f8087828801611be1565b925050606085013567ffffffffffffffff811115611fa157611fa0611a45565b5b611fad87828801611f08565b91505092959194509250565b60008060408385031215611fd057611fcf611a40565b5b6000611fde85828601611c96565b9250506020611fef85828601611c96565b9150509250929050565b7f4e487b7100000000000000000000000000000000000000000000000000000000600052602260045260246000fd5b6000600282049050600182168061204057607f821691505b6020821081141561205457612053611ff9565b5b50919050565b7f4552433732313a20617070726f76616c20746f2063757272656e74206f776e6560008201527f7200000000000000000000000000000000000000000000000000000000000000602082015250565b60006120b6602183611b10565b91506120c18261205a565b604082019050919050565b600060208201905081810360008301526120e5816120a9565b9050919050565b7f4552433732313a20617070726f76652063616c6c6572206973206e6f7420746f60008201527f6b656e206f776e6572206f7220617070726f76656420666f7220616c6c000000602082015250565b6000612148603d83611b10565b9150612153826120ec565b604082019050919050565b600060208201905081810360008301526121778161213b565b9050919050565b7f4e487b7100000000000000000000000000000000000000000000000000000000600052601160045260246000fd5b60006121b882611bc0565b91507fffffffffffffffffffffffffffffffffffffffffffffffffffffffffffffffff8214156121eb576121ea61217e565b5b600182019050919050565b7f4552433732313a2063616c6c6572206973206e6f7420746f6b656e206f776e6560008201527f72206f7220617070726f76656400000000000000000000000000000000000000602082015250565b6000612252602d83611b10565b915061225d826121f6565b604082019050919050565b6000602082019050818103600083015261228181612245565b9050919050565b7f4552433732313a20696e76616c696420746f6b656e2049440000000000000000600082015250565b60006122be601883611b10565b91506122c982612288565b602082019050919050565b600060208201905081810360008301526122ed816122b1565b9050919050565b7f4552433732313a2061646472657373207a65726f206973206e6f74206120766160008201527f6c6964206f776e65720000000000000000000000000000000000000000000000602082015250565b6000612350602983611b10565b915061235b826122f4565b604082019050919050565b6000602082019050818103600083015261237f81612343565b9050919050565b600081905092915050565b600061239c82611b05565b6123a68185612386565b93506123b6818560208601611b21565b80840191505092915050565b60006123ce8285612391565b91506123da8284612391565b91508190509392505050565b7f4552433732313a207472616e736665722066726f6d20696e636f72726563742060008201527f6f776e6572000000000000000000000000000000000000000000000000000000602082015250565b6000612442602583611b10565b915061244d826123e6565b604082019050919050565b6000602082019050818103600083015261247181612435565b9050919050565b7f4552433732313a207472616e7366657220746f20746865207a65726f2061646460008201527f7265737300000000000000000000000000000000000000000000000000000000602082015250565b60006124d4602483611b10565b91506124df82612478565b604082019050919050565b60006020820190508181036000830152612503816124c7565b9050919050565b7f4552433732313a20617070726f766520746f2063616c6c657200000000000000600082015250565b6000612540601983611b10565b915061254b8261250a565b602082019050919050565b6000602082019050818103600083015261256f81612533565b9050919050565b7f4552433732313a207472616e7366657220746f206e6f6e20455243373231526560008201527f63656976657220696d706c656d656e7465720000000000000000000000000000602082015250565b60006125d2603283611b10565b91506125dd82612576565b604082019050919050565b60006020820190508181036000830152612601816125c5565b9050919050565b600061261382611bc0565b915061261e83611bc0565b9250828210156126315761263061217e565b5b828203905092915050565b600061264782611bc0565b915061265283611bc0565b9250827fffffffffffffffffffffffffffffffffffffffffffffffffffffffffffffffff038211156126875761268661217e565b5b828201905092915050565b600081519050919050565b600082825260208201905092915050565b60006126b982612692565b6126c3818561269d565b93506126d3818560208601611b21565b6126dc81611b54565b840191505092915050565b60006080820190506126fc6000830187611c55565b6127096020830186611c55565b6127166040830185611ceb565b818103606083015261272881846126ae565b905095945050505050565b60008151905061274281611a76565b92915050565b60006020828403121561275e5761275d611a40565b5b600061276c84828501612733565b91505092915050565b7f4e487b7100000000000000000000000000000000000000000000000000000000600052601260045260246000fd5b7f4552433732313a206d696e7420746f20746865207a65726f2061646472657373600082015250565b60006127da602083611b10565b91506127e5826127a4565b602082019050919050565b60006020820190508181036000830152612809816127cd565b9050919050565b7f4552433732313a20746f6b656e20616c7265616479206d696e74656400000000600082015250565b6000612846601c83611b10565b915061285182612810565b602082019050919050565b6000602082019050818103600083015261287581612839565b905091905056fea2646970667358221220659c73535df9c8ebcac47dd3aa0911542ab5776965e33e1f4067a04a79b6e70c64736f6c63430008090033",
  "linkReferences": {},
  "deployedLinkReferences": {}
}